{
  "contractName": "wallet",
  "abi": [
    {
      "inputs": [
        {
          "internalType": "address[]",
          "name": "_approvers",
          "type": "address[]"
        },
        {
          "internalType": "uint256",
          "name": "_quorum",
          "type": "uint256"
        }
      ],
      "stateMutability": "nonpayable",
      "type": "constructor"
    },
    {
      "inputs": [
        {
          "internalType": "uint256",
          "name": "",
          "type": "uint256"
        }
      ],
      "name": "approvers",
      "outputs": [
        {
          "internalType": "address",
          "name": "",
          "type": "address"
        }
      ],
      "stateMutability": "view",
      "type": "function",
      "constant": true
    },
    {
      "inputs": [],
      "name": "quorum",
      "outputs": [
        {
          "internalType": "uint256",
          "name": "",
          "type": "uint256"
        }
      ],
      "stateMutability": "view",
      "type": "function",
      "constant": true
    },
    {
      "inputs": [
        {
          "internalType": "uint256",
          "name": "",
          "type": "uint256"
        }
      ],
      "name": "transfers",
      "outputs": [
        {
          "internalType": "uint256",
          "name": "id",
          "type": "uint256"
        },
        {
          "internalType": "uint256",
          "name": "amount",
          "type": "uint256"
        },
        {
          "internalType": "address payable",
          "name": "to",
          "type": "address"
        },
        {
          "internalType": "uint256",
          "name": "approvals",
          "type": "uint256"
        },
        {
          "internalType": "bool",
          "name": "sent",
          "type": "bool"
        }
      ],
      "stateMutability": "view",
      "type": "function",
      "constant": true
    },
    {
      "stateMutability": "payable",
      "type": "receive",
      "payable": true
    },
    {
      "inputs": [],
      "name": "getApprovers",
      "outputs": [
        {
          "internalType": "address[]",
          "name": "",
          "type": "address[]"
        }
      ],
      "stateMutability": "view",
      "type": "function",
      "constant": true
    },
    {
      "inputs": [],
      "name": "getTransfer",
      "outputs": [
        {
          "components": [
            {
              "internalType": "uint256",
              "name": "id",
              "type": "uint256"
            },
            {
              "internalType": "uint256",
              "name": "amount",
              "type": "uint256"
            },
            {
              "internalType": "address payable",
              "name": "to",
              "type": "address"
            },
            {
              "internalType": "uint256",
              "name": "approvals",
              "type": "uint256"
            },
            {
              "internalType": "bool",
              "name": "sent",
              "type": "bool"
            }
          ],
          "internalType": "struct wallet.Transfer[]",
          "name": "",
          "type": "tuple[]"
        }
      ],
      "stateMutability": "view",
      "type": "function",
      "constant": true
    },
    {
      "inputs": [
        {
          "internalType": "uint256",
          "name": "amount",
          "type": "uint256"
        },
        {
          "internalType": "address payable",
          "name": "to",
          "type": "address"
        }
      ],
      "name": "createTransfer",
      "outputs": [],
      "stateMutability": "nonpayable",
      "type": "function"
    },
    {
      "inputs": [
        {
          "internalType": "uint256",
          "name": "id",
          "type": "uint256"
        }
      ],
      "name": "approveTransfer",
      "outputs": [],
      "stateMutability": "nonpayable",
      "type": "function"
    }
  ],
  "bytecode": "0x60806040523480156200001157600080fd5b50604051620013b3380380620013b3833981810160405281019062000037919062000336565b81600090805190602001906200004f9291906200005f565b508060018190555050506200039c565b828054828255906000526020600020908101928215620000db579160200282015b82811115620000da5782518260006101000a81548173ffffffffffffffffffffffffffffffffffffffff021916908373ffffffffffffffffffffffffffffffffffffffff1602179055509160200191906001019062000080565b5b509050620000ea9190620000ee565b5090565b5b8082111562000109576000816000905550600101620000ef565b5090565b6000604051905090565b600080fd5b600080fd5b600080fd5b6000601f19601f8301169050919050565b7f4e487b7100000000000000000000000000000000000000000000000000000000600052604160045260246000fd5b620001718262000126565b810181811067ffffffffffffffff8211171562000193576200019262000137565b5b80604052505050565b6000620001a86200010d565b9050620001b6828262000166565b919050565b600067ffffffffffffffff821115620001d957620001d862000137565b5b602082029050602081019050919050565b600080fd5b600073ffffffffffffffffffffffffffffffffffffffff82169050919050565b60006200021c82620001ef565b9050919050565b6200022e816200020f565b81146200023a57600080fd5b50565b6000815190506200024e8162000223565b92915050565b60006200026b6200026584620001bb565b6200019c565b90508083825260208201905060208402830185811115620002915762000290620001ea565b5b835b81811015620002be5780620002a988826200023d565b84526020840193505060208101905062000293565b5050509392505050565b600082601f830112620002e057620002df62000121565b5b8151620002f284826020860162000254565b91505092915050565b6000819050919050565b6200031081620002fb565b81146200031c57600080fd5b50565b600081519050620003308162000305565b92915050565b6000806040838503121562000350576200034f62000117565b5b600083015167ffffffffffffffff8111156200037157620003706200011c565b5b6200037f85828601620002c8565b925050602062000392858286016200031f565b9150509250929050565b61100780620003ac6000396000f3fe6080604052600436106100745760003560e01c80639377d7111161004e5780639377d711146100ff578063b87141bf14610140578063cacca4a01461016b578063d3650fb8146101945761007b565b80631703a018146100805780634c12fa47146100ab5780636cb3e8ef146100d45761007b565b3661007b57005b600080fd5b34801561008c57600080fd5b506100956101d1565b6040516100a291906109c0565b60405180910390f35b3480156100b757600080fd5b506100d260048036038101906100cd9190610a6a565b6101d7565b005b3480156100e057600080fd5b506100e96103af565b6040516100f69190610b7a565b60405180910390f35b34801561010b57600080fd5b5061012660048036038101906101219190610b9c565b61043d565b604051610137959493929190610bf3565b60405180910390f35b34801561014c57600080fd5b506101556104b0565b6040516101629190610d8a565b60405180910390f35b34801561017757600080fd5b50610192600480360381019061018d9190610b9c565b61059e565b005b3480156101a057600080fd5b506101bb60048036038101906101b69190610b9c565b610968565b6040516101c89190610dbb565b60405180910390f35b60015481565b6000805b600080549050811015610271573373ffffffffffffffffffffffffffffffffffffffff166000828154811061021357610212610dd6565b5b9060005260206000200160009054906101000a900473ffffffffffffffffffffffffffffffffffffffff1673ffffffffffffffffffffffffffffffffffffffff160361025e57600191505b808061026990610e34565b9150506101db565b50806102b2576040517f08c379a00000000000000000000000000000000000000000000000000000000081526004016102a990610ed9565b60405180910390fd5b60026040518060a0016040528060028054905081526020018581526020018473ffffffffffffffffffffffffffffffffffffffff16815260200160008152602001600015158152509080600181540180825580915050600190039060005260206000209060050201600090919091909150600082015181600001556020820151816001015560408201518160020160006101000a81548173ffffffffffffffffffffffffffffffffffffffff021916908373ffffffffffffffffffffffffffffffffffffffff1602179055506060820151816003015560808201518160040160006101000a81548160ff0219169083151502179055505050505050565b6060600080548060200260200160405190810160405280929190818152602001828054801561043357602002820191906000526020600020905b8160009054906101000a900473ffffffffffffffffffffffffffffffffffffffff1673ffffffffffffffffffffffffffffffffffffffff16815260200190600101908083116103e9575b5050505050905090565b6002818154811061044d57600080fd5b90600052602060002090600502016000915090508060000154908060010154908060020160009054906101000a900473ffffffffffffffffffffffffffffffffffffffff16908060030154908060040160009054906101000a900460ff16905085565b60606002805480602002602001604051908101604052809291908181526020016000905b8282101561059557838290600052602060002090600502016040518060a001604052908160008201548152602001600182015481526020016002820160009054906101000a900473ffffffffffffffffffffffffffffffffffffffff1673ffffffffffffffffffffffffffffffffffffffff1673ffffffffffffffffffffffffffffffffffffffff168152602001600382015481526020016004820160009054906101000a900460ff161515151581525050815260200190600101906104d4565b50505050905090565b6000805b600080549050811015610638573373ffffffffffffffffffffffffffffffffffffffff16600082815481106105da576105d9610dd6565b5b9060005260206000200160009054906101000a900473ffffffffffffffffffffffffffffffffffffffff1673ffffffffffffffffffffffffffffffffffffffff160361062557600191505b808061063090610e34565b9150506105a2565b5080610679576040517f08c379a000000000000000000000000000000000000000000000000000000000815260040161067090610ed9565b60405180910390fd5b600015156002838154811061069157610690610dd6565b5b906000526020600020906005020160040160009054906101000a900460ff161515146106f2576040517f08c379a00000000000000000000000000000000000000000000000000000000081526004016106e990610f45565b60405180910390fd5b60001515600360003373ffffffffffffffffffffffffffffffffffffffff1673ffffffffffffffffffffffffffffffffffffffff168152602001908152602001600020600084815260200190815260200160002060009054906101000a900460ff16151514610796576040517f08c379a000000000000000000000000000000000000000000000000000000000815260040161078d90610fb1565b60405180910390fd5b6001600360003373ffffffffffffffffffffffffffffffffffffffff1673ffffffffffffffffffffffffffffffffffffffff168152602001908152602001600020600084815260200190815260200160002060006101000a81548160ff0219169083151502179055506002828154811061081357610812610dd6565b5b9060005260206000209060050201600301600081548092919061083590610e34565b91905055506001546002838154811061085157610850610dd6565b5b906000526020600020906005020160030154106109645760016002838154811061087e5761087d610dd6565b5b906000526020600020906005020160040160006101000a81548160ff0219169083151502179055506000600283815481106108bc576108bb610dd6565b5b906000526020600020906005020160020160009054906101000a900473ffffffffffffffffffffffffffffffffffffffff16905060006002848154811061090657610905610dd6565b5b90600052602060002090600502016001015490508173ffffffffffffffffffffffffffffffffffffffff166108fc829081150290604051600060405180830381858888f19350505050158015610960573d6000803e3d6000fd5b5050505b5050565b6000818154811061097857600080fd5b906000526020600020016000915054906101000a900473ffffffffffffffffffffffffffffffffffffffff1681565b6000819050919050565b6109ba816109a7565b82525050565b60006020820190506109d560008301846109b1565b92915050565b600080fd5b6109e9816109a7565b81146109f457600080fd5b50565b600081359050610a06816109e0565b92915050565b600073ffffffffffffffffffffffffffffffffffffffff82169050919050565b6000610a3782610a0c565b9050919050565b610a4781610a2c565b8114610a5257600080fd5b50565b600081359050610a6481610a3e565b92915050565b60008060408385031215610a8157610a806109db565b5b6000610a8f858286016109f7565b9250506020610aa085828601610a55565b9150509250929050565b600081519050919050565b600082825260208201905092915050565b6000819050602082019050919050565b6000610ae182610a0c565b9050919050565b610af181610ad6565b82525050565b6000610b038383610ae8565b60208301905092915050565b6000602082019050919050565b6000610b2782610aaa565b610b318185610ab5565b9350610b3c83610ac6565b8060005b83811015610b6d578151610b548882610af7565b9750610b5f83610b0f565b925050600181019050610b40565b5085935050505092915050565b60006020820190508181036000830152610b948184610b1c565b905092915050565b600060208284031215610bb257610bb16109db565b5b6000610bc0848285016109f7565b91505092915050565b610bd281610a2c565b82525050565b60008115159050919050565b610bed81610bd8565b82525050565b600060a082019050610c0860008301886109b1565b610c1560208301876109b1565b610c226040830186610bc9565b610c2f60608301856109b1565b610c3c6080830184610be4565b9695505050505050565b600081519050919050565b600082825260208201905092915050565b6000819050602082019050919050565b610c7b816109a7565b82525050565b610c8a81610a2c565b82525050565b610c9981610bd8565b82525050565b60a082016000820151610cb56000850182610c72565b506020820151610cc86020850182610c72565b506040820151610cdb6040850182610c81565b506060820151610cee6060850182610c72565b506080820151610d016080850182610c90565b50505050565b6000610d138383610c9f565b60a08301905092915050565b6000602082019050919050565b6000610d3782610c46565b610d418185610c51565b9350610d4c83610c62565b8060005b83811015610d7d578151610d648882610d07565b9750610d6f83610d1f565b925050600181019050610d50565b5085935050505092915050565b60006020820190508181036000830152610da48184610d2c565b905092915050565b610db581610ad6565b82525050565b6000602082019050610dd06000830184610dac565b92915050565b7f4e487b7100000000000000000000000000000000000000000000000000000000600052603260045260246000fd5b7f4e487b7100000000000000000000000000000000000000000000000000000000600052601160045260246000fd5b6000610e3f826109a7565b91507fffffffffffffffffffffffffffffffffffffffffffffffffffffffffffffffff8203610e7157610e70610e05565b5b600182019050919050565b600082825260208201905092915050565b7f6f6e6c7920617070726f766572732061726520616c6c6f776564000000000000600082015250565b6000610ec3601a83610e7c565b9150610ece82610e8d565b602082019050919050565b60006020820190508181036000830152610ef281610eb6565b9050919050565b7f7472616e7366657220616c726561647920636f6d706c65746564000000000000600082015250565b6000610f2f601a83610e7c565b9150610f3a82610ef9565b602082019050919050565b60006020820190508181036000830152610f5e81610f22565b9050919050565b7f63616e6e6f7420617070726f7665207472616e73666572207477696365000000600082015250565b6000610f9b601d83610e7c565b9150610fa682610f65565b602082019050919050565b60006020820190508181036000830152610fca81610f8e565b905091905056fea264697066735822122022ae923ea301d52ba0cb4396cddbdc8d0f081d8335cb3779c7f885b192821ffc64736f6c634300080d0033",
  "immutableReferences": {},
  "source": "// SPDX-License-Identifier: MIT\r\npragma solidity 0.8.13;\r\n\r\ncontract wallet{\r\n\r\n    address[] public approvers;\r\n\r\n    uint public quorum;\r\n\r\n    struct Transfer{\r\n        uint id;\r\n        uint amount;\r\n        address payable to;\r\n        uint approvals;\r\n        bool sent;\r\n    }\r\n\r\n    Transfer[] public transfers;\r\n    mapping(address => mapping(uint => bool)) approvals;\r\n\r\n    constructor(address[] memory _approvers, uint _quorum){\r\n      approvers = _approvers;\r\n      quorum = _quorum;\r\n    }\r\n\r\n\r\n    function getApprovers() external view returns (address[] memory){\r\n        return approvers;\r\n    }\r\n\r\n    function getTransfer() external view returns (Transfer[] memory){\r\n        return transfers;\r\n    }\r\n\r\n    function createTransfer(uint amount, address payable to) external permission {\r\n        transfers.push(Transfer(transfers.length, amount, to, 0, false));\r\n    }\r\n\r\n    function approveTransfer(uint id) external permission{\r\n        require(transfers[id].sent == false, \"transfer already completed\");\r\n        require(approvals[msg.sender][id] == false, \"cannot approve transfer twice\");\r\n\r\n        approvals[msg.sender][id] = true;\r\n        transfers[id].approvals++;\r\n\r\n        if(transfers[id].approvals >= quorum){\r\n            transfers[id].sent = true;\r\n            address payable to = transfers[id].to;\r\n            uint amount = transfers[id].amount;\r\n            to.transfer(amount);\r\n        }\r\n    }\r\n\r\n    receive() payable external{}\r\n\r\n    modifier permission(){\r\n        bool permit = false;\r\n\r\n        for(uint i = 0; i < approvers.length; i++){\r\n            if(approvers[i] == msg.sender){\r\n                permit = true;\r\n            }\r\n        }\r\n\r\n        require(permit, \"only approvers are allowed\");\r\n        _;\r\n    }\r\n}",
  "sourcePath": "C:\\Users\\Dami\\Desktop\\Multisig-wallet\\contracts\\wallet.sol",
  "compiler": {
    "name": "solc",
    "version": "0.8.13+commit.abaa5c0e.Emscripten.clang"
  },
  "schemaVersion": "3.4.4",
  "updatedAt": "2022-05-13T17:25:08.411Z",
  "networkType": "ethereum",
  "devdoc": {
    "kind": "dev",
    "methods": {},
    "version": 1
  },
  "userdoc": {
    "kind": "user",
    "methods": {},
    "version": 1
  }
}